{
  "contractName": "NFT",
  "abi": [
    {
      "inputs": [],
      "stateMutability": "nonpayable",
      "type": "constructor"
    },
    {
      "anonymous": false,
      "inputs": [
        {
          "indexed": true,
          "internalType": "address",
          "name": "owner",
          "type": "address"
        },
        {
          "indexed": true,
          "internalType": "address",
          "name": "approved",
          "type": "address"
        },
        {
          "indexed": true,
          "internalType": "uint256",
          "name": "tokenId",
          "type": "uint256"
        }
      ],
      "name": "Approval",
      "type": "event"
    },
    {
      "anonymous": false,
      "inputs": [
        {
          "indexed": true,
          "internalType": "address",
          "name": "owner",
          "type": "address"
        },
        {
          "indexed": true,
          "internalType": "address",
          "name": "operator",
          "type": "address"
        },
        {
          "indexed": false,
          "internalType": "bool",
          "name": "approved",
          "type": "bool"
        }
      ],
      "name": "ApprovalForAll",
      "type": "event"
    },
    {
      "anonymous": false,
      "inputs": [
        {
          "indexed": true,
          "internalType": "address",
          "name": "from",
          "type": "address"
        },
        {
          "indexed": true,
          "internalType": "address",
          "name": "to",
          "type": "address"
        },
        {
          "indexed": true,
          "internalType": "uint256",
          "name": "tokenId",
          "type": "uint256"
        }
      ],
      "name": "Transfer",
      "type": "event"
    },
    {
      "inputs": [
        {
          "internalType": "address",
          "name": "to",
          "type": "address"
        },
        {
          "internalType": "uint256",
          "name": "tokenId",
          "type": "uint256"
        }
      ],
      "name": "approve",
      "outputs": [],
      "stateMutability": "nonpayable",
      "type": "function"
    },
    {
      "inputs": [
        {
          "internalType": "address",
          "name": "owner",
          "type": "address"
        }
      ],
      "name": "balanceOf",
      "outputs": [
        {
          "internalType": "uint256",
          "name": "",
          "type": "uint256"
        }
      ],
      "stateMutability": "view",
      "type": "function",
      "constant": true
    },
    {
      "inputs": [
        {
          "internalType": "uint256",
          "name": "tokenId",
          "type": "uint256"
        }
      ],
      "name": "getApproved",
      "outputs": [
        {
          "internalType": "address",
          "name": "",
          "type": "address"
        }
      ],
      "stateMutability": "view",
      "type": "function",
      "constant": true
    },
    {
      "inputs": [
        {
          "internalType": "address",
          "name": "owner",
          "type": "address"
        },
        {
          "internalType": "address",
          "name": "operator",
          "type": "address"
        }
      ],
      "name": "isApprovedForAll",
      "outputs": [
        {
          "internalType": "bool",
          "name": "",
          "type": "bool"
        }
      ],
      "stateMutability": "view",
      "type": "function",
      "constant": true
    },
    {
      "inputs": [
        {
          "internalType": "uint256",
          "name": "",
          "type": "uint256"
        }
      ],
      "name": "items",
      "outputs": [
        {
          "internalType": "string",
          "name": "",
          "type": "string"
        }
      ],
      "stateMutability": "view",
      "type": "function",
      "constant": true
    },
    {
      "inputs": [],
      "name": "name",
      "outputs": [
        {
          "internalType": "string",
          "name": "",
          "type": "string"
        }
      ],
      "stateMutability": "view",
      "type": "function",
      "constant": true
    },
    {
      "inputs": [
        {
          "internalType": "uint256",
          "name": "tokenId",
          "type": "uint256"
        }
      ],
      "name": "ownerOf",
      "outputs": [
        {
          "internalType": "address",
          "name": "",
          "type": "address"
        }
      ],
      "stateMutability": "view",
      "type": "function",
      "constant": true
    },
    {
      "inputs": [
        {
          "internalType": "address",
          "name": "from",
          "type": "address"
        },
        {
          "internalType": "address",
          "name": "to",
          "type": "address"
        },
        {
          "internalType": "uint256",
          "name": "tokenId",
          "type": "uint256"
        }
      ],
      "name": "safeTransferFrom",
      "outputs": [],
      "stateMutability": "nonpayable",
      "type": "function"
    },
    {
      "inputs": [
        {
          "internalType": "address",
          "name": "from",
          "type": "address"
        },
        {
          "internalType": "address",
          "name": "to",
          "type": "address"
        },
        {
          "internalType": "uint256",
          "name": "tokenId",
          "type": "uint256"
        },
        {
          "internalType": "bytes",
          "name": "_data",
          "type": "bytes"
        }
      ],
      "name": "safeTransferFrom",
      "outputs": [],
      "stateMutability": "nonpayable",
      "type": "function"
    },
    {
      "inputs": [
        {
          "internalType": "address",
          "name": "operator",
          "type": "address"
        },
        {
          "internalType": "bool",
          "name": "approved",
          "type": "bool"
        }
      ],
      "name": "setApprovalForAll",
      "outputs": [],
      "stateMutability": "nonpayable",
      "type": "function"
    },
    {
      "inputs": [],
      "name": "symbol",
      "outputs": [
        {
          "internalType": "string",
          "name": "",
          "type": "string"
        }
      ],
      "stateMutability": "view",
      "type": "function",
      "constant": true
    },
    {
      "inputs": [
        {
          "internalType": "uint256",
          "name": "index",
          "type": "uint256"
        }
      ],
      "name": "tokenByIndex",
      "outputs": [
        {
          "internalType": "uint256",
          "name": "",
          "type": "uint256"
        }
      ],
      "stateMutability": "view",
      "type": "function",
      "constant": true
    },
    {
      "inputs": [
        {
          "internalType": "address",
          "name": "owner",
          "type": "address"
        },
        {
          "internalType": "uint256",
          "name": "index",
          "type": "uint256"
        }
      ],
      "name": "tokenOfOwnerByIndex",
      "outputs": [
        {
          "internalType": "uint256",
          "name": "",
          "type": "uint256"
        }
      ],
      "stateMutability": "view",
      "type": "function",
      "constant": true
    },
    {
      "inputs": [
        {
          "internalType": "uint256",
          "name": "tokenId",
          "type": "uint256"
        }
      ],
      "name": "tokenURI",
      "outputs": [
        {
          "internalType": "string",
          "name": "",
          "type": "string"
        }
      ],
      "stateMutability": "view",
      "type": "function",
      "constant": true
    },
    {
      "inputs": [],
      "name": "totalSupply",
      "outputs": [
        {
          "internalType": "uint256",
          "name": "",
          "type": "uint256"
        }
      ],
      "stateMutability": "view",
      "type": "function",
      "constant": true
    },
    {
      "inputs": [
        {
          "internalType": "address",
          "name": "from",
          "type": "address"
        },
        {
          "internalType": "address",
          "name": "to",
          "type": "address"
        },
        {
          "internalType": "uint256",
          "name": "tokenId",
          "type": "uint256"
        }
      ],
      "name": "transferFrom",
      "outputs": [],
      "stateMutability": "nonpayable",
      "type": "function"
    },
    {
      "inputs": [
        {
          "internalType": "string",
          "name": "_item",
          "type": "string"
        }
      ],
      "name": "mint_NFT",
      "outputs": [],
      "stateMutability": "nonpayable",
      "type": "function"
    },
    {
      "inputs": [
        {
          "internalType": "bytes4",
          "name": "interfaceId",
          "type": "bytes4"
        }
      ],
      "name": "supportsInterface",
      "outputs": [
        {
          "internalType": "bool",
          "name": "",
          "type": "bool"
        }
      ],
      "stateMutability": "view",
      "type": "function",
      "constant": true
    }
  ],
  "bytecode": "0x60806040523480156200001157600080fd5b506040518060400160405280600a81526020017f56414e495448204e4654000000000000000000000000000000000000000000008152506040518060400160405280600481526020017f564e465400000000000000000000000000000000000000000000000000000000815250816000908051906020019062000096929190620000b8565b508060019080519060200190620000af929190620000b8565b505050620001cc565b828054620000c69062000197565b90600052602060002090601f016020900481019282620000ea576000855562000136565b82601f106200010557805160ff191683800117855562000136565b8280016001018555821562000136579182015b828111156200013557825182559160200191906001019062000118565b5b50905062000145919062000149565b5090565b5b80821115620001645760008160009055506001016200014a565b5090565b7f4e487b7100000000000000000000000000000000000000000000000000000000600052602260045260246000fd5b60006002820490506001821680620001b057607f821691505b602082108103620001c657620001c562000168565b5b50919050565b6131df80620001dc6000396000f3fe608060405234801561001057600080fd5b50600436106101165760003560e01c80636352211e116100a2578063a22cb46511610071578063a22cb46514610305578063b88d4fde14610321578063bfb231d21461033d578063c87b56dd1461036d578063e985e9c51461039d57610116565b80636352211e1461026b57806370a082311461029b5780638d2e41e5146102cb57806395d89b41146102e757610116565b806318160ddd116100e957806318160ddd146101b557806323b872dd146101d35780632f745c59146101ef57806342842e0e1461021f5780634f6ccce71461023b57610116565b806301ffc9a71461011b57806306fdde031461014b578063081812fc14610169578063095ea7b314610199575b600080fd5b61013560048036038101906101309190611f10565b6103cd565b6040516101429190611f58565b60405180910390f35b6101536103df565b604051610160919061200c565b60405180910390f35b610183600480360381019061017e9190612064565b610471565b60405161019091906120d2565b60405180910390f35b6101b360048036038101906101ae9190612119565b6104f6565b005b6101bd61060d565b6040516101ca9190612168565b60405180910390f35b6101ed60048036038101906101e89190612183565b61061a565b005b61020960048036038101906102049190612119565b61067a565b6040516102169190612168565b60405180910390f35b61023960048036038101906102349190612183565b61071f565b005b61025560048036038101906102509190612064565b61073f565b6040516102629190612168565b60405180910390f35b61028560048036038101906102809190612064565b6107b0565b60405161029291906120d2565b60405180910390f35b6102b560048036038101906102b091906121d6565b610861565b6040516102c29190612168565b60405180910390f35b6102e560048036038101906102e09190612338565b610918565b005b6102ef6109e5565b6040516102fc919061200c565b60405180910390f35b61031f600480360381019061031a91906123ad565b610a77565b005b61033b6004803603810190610336919061248e565b610a8d565b005b61035760048036038101906103529190612064565b610aef565b604051610364919061200c565b60405180910390f35b61038760048036038101906103829190612064565b610b9b565b604051610394919061200c565b60405180910390f35b6103b760048036038101906103b29190612511565b610c42565b6040516103c49190611f58565b60405180910390f35b60006103d882610cd6565b9050919050565b6060600080546103ee90612580565b80601f016020809104026020016040519081016040528092919081815260200182805461041a90612580565b80156104675780601f1061043c57610100808354040283529160200191610467565b820191906000526020600020905b81548152906001019060200180831161044a57829003601f168201915b5050505050905090565b600061047c82610d50565b6104bb576040517f08c379a00000000000000000000000000000000000000000000000000000000081526004016104b290612623565b60405180910390fd5b6004600083815260200190815260200160002060009054906101000a900473ffffffffffffffffffffffffffffffffffffffff169050919050565b6000610501826107b0565b90508073ffffffffffffffffffffffffffffffffffffffff168373ffffffffffffffffffffffffffffffffffffffff1603610571576040517f08c379a0000000000000000000000000000000000000000000000000000000008152600401610568906126b5565b60405180910390fd5b8073ffffffffffffffffffffffffffffffffffffffff16610590610dbc565b73ffffffffffffffffffffffffffffffffffffffff1614806105bf57506105be816105b9610dbc565b610c42565b5b6105fe576040517f08c379a00000000000000000000000000000000000000000000000000000000081526004016105f590612747565b60405180910390fd5b6106088383610dc4565b505050565b6000600880549050905090565b61062b610625610dbc565b82610e7d565b61066a576040517f08c379a0000000000000000000000000000000000000000000000000000000008152600401610661906127d9565b60405180910390fd5b610675838383610f5b565b505050565b600061068583610861565b82106106c6576040517f08c379a00000000000000000000000000000000000000000000000000000000081526004016106bd9061286b565b60405180910390fd5b600660008473ffffffffffffffffffffffffffffffffffffffff1673ffffffffffffffffffffffffffffffffffffffff168152602001908152602001600020600083815260200190815260200160002054905092915050565b61073a83838360405180602001604052806000815250610a8d565b505050565b600061074961060d565b821061078a576040517f08c379a0000000000000000000000000000000000000000000000000000000008152600401610781906128fd565b60405180910390fd5b6008828154811061079e5761079d61291d565b5b90600052602060002001549050919050565b6000806002600084815260200190815260200160002060009054906101000a900473ffffffffffffffffffffffffffffffffffffffff169050600073ffffffffffffffffffffffffffffffffffffffff168173ffffffffffffffffffffffffffffffffffffffff1603610858576040517f08c379a000000000000000000000000000000000000000000000000000000000815260040161084f906129be565b60405180910390fd5b80915050919050565b60008073ffffffffffffffffffffffffffffffffffffffff168273ffffffffffffffffffffffffffffffffffffffff16036108d1576040517f08c379a00000000000000000000000000000000000000000000000000000000081526004016108c890612a50565b60405180910390fd5b600360008373ffffffffffffffffffffffffffffffffffffffff1673ffffffffffffffffffffffffffffffffffffffff168152602001908152602001600020549050919050565b600b816040516109289190612aac565b908152602001604051809103902060009054906101000a900460ff161561094e57600080fd5b600a81908060018154018082558091505060019003906000526020600020016000909190919091509080519060200190610989929190611e01565b506001600b8260405161099c9190612aac565b908152602001604051809103902060006101000a81548160ff02191690831515021790555060006001600a805490506109d59190612af2565b90506109e133826111c1565b5050565b6060600180546109f490612580565b80601f0160208091040260200160405190810160405280929190818152602001828054610a2090612580565b8015610a6d5780601f10610a4257610100808354040283529160200191610a6d565b820191906000526020600020905b815481529060010190602001808311610a5057829003601f168201915b5050505050905090565b610a89610a82610dbc565b838361139a565b5050565b610a9e610a98610dbc565b83610e7d565b610add576040517f08c379a0000000000000000000000000000000000000000000000000000000008152600401610ad4906127d9565b60405180910390fd5b610ae984848484611506565b50505050565b600a8181548110610aff57600080fd5b906000526020600020016000915090508054610b1a90612580565b80601f0160208091040260200160405190810160405280929190818152602001828054610b4690612580565b8015610b935780601f10610b6857610100808354040283529160200191610b93565b820191906000526020600020905b815481529060010190602001808311610b7657829003601f168201915b505050505081565b6060610ba682610d50565b610be5576040517f08c379a0000000000000000000000000000000000000000000000000000000008152600401610bdc90612b98565b60405180910390fd5b6000610bef611562565b90506000815111610c0f5760405180602001604052806000815250610c3a565b80610c1984611579565b604051602001610c2a929190612bb8565b6040516020818303038152906040525b915050919050565b6000600560008473ffffffffffffffffffffffffffffffffffffffff1673ffffffffffffffffffffffffffffffffffffffff16815260200190815260200160002060008373ffffffffffffffffffffffffffffffffffffffff1673ffffffffffffffffffffffffffffffffffffffff16815260200190815260200160002060009054906101000a900460ff16905092915050565b60007f780e9d63000000000000000000000000000000000000000000000000000000007bffffffffffffffffffffffffffffffffffffffffffffffffffffffff1916827bffffffffffffffffffffffffffffffffffffffffffffffffffffffff19161480610d495750610d48826116d9565b5b9050919050565b60008073ffffffffffffffffffffffffffffffffffffffff166002600084815260200190815260200160002060009054906101000a900473ffffffffffffffffffffffffffffffffffffffff1673ffffffffffffffffffffffffffffffffffffffff1614159050919050565b600033905090565b816004600083815260200190815260200160002060006101000a81548173ffffffffffffffffffffffffffffffffffffffff021916908373ffffffffffffffffffffffffffffffffffffffff160217905550808273ffffffffffffffffffffffffffffffffffffffff16610e37836107b0565b73ffffffffffffffffffffffffffffffffffffffff167f8c5be1e5ebec7d5bd14f71427d1e84f3dd0314c0f7b2291e5b200ac8c7c3b92560405160405180910390a45050565b6000610e8882610d50565b610ec7576040517f08c379a0000000000000000000000000000000000000000000000000000000008152600401610ebe90612c4e565b60405180910390fd5b6000610ed2836107b0565b90508073ffffffffffffffffffffffffffffffffffffffff168473ffffffffffffffffffffffffffffffffffffffff161480610f4157508373ffffffffffffffffffffffffffffffffffffffff16610f2984610471565b73ffffffffffffffffffffffffffffffffffffffff16145b80610f525750610f518185610c42565b5b91505092915050565b8273ffffffffffffffffffffffffffffffffffffffff16610f7b826107b0565b73ffffffffffffffffffffffffffffffffffffffff1614610fd1576040517f08c379a0000000000000000000000000000000000000000000000000000000008152600401610fc890612ce0565b60405180910390fd5b600073ffffffffffffffffffffffffffffffffffffffff168273ffffffffffffffffffffffffffffffffffffffff1603611040576040517f08c379a000000000000000000000000000000000000000000000000000000000815260040161103790612d72565b60405180910390fd5b61104b8383836117bb565b611056600082610dc4565b6001600360008573ffffffffffffffffffffffffffffffffffffffff1673ffffffffffffffffffffffffffffffffffffffff16815260200190815260200160002060008282546110a69190612af2565b925050819055506001600360008473ffffffffffffffffffffffffffffffffffffffff1673ffffffffffffffffffffffffffffffffffffffff16815260200190815260200160002060008282546110fd9190612d92565b92505081905550816002600083815260200190815260200160002060006101000a81548173ffffffffffffffffffffffffffffffffffffffff021916908373ffffffffffffffffffffffffffffffffffffffff160217905550808273ffffffffffffffffffffffffffffffffffffffff168473ffffffffffffffffffffffffffffffffffffffff167fddf252ad1be2c89b69c2b068fc378daa952ba7f163c4a11628f55a4df523b3ef60405160405180910390a46111bc8383836117cb565b505050565b600073ffffffffffffffffffffffffffffffffffffffff168273ffffffffffffffffffffffffffffffffffffffff1603611230576040517f08c379a000000000000000000000000000000000000000000000000000000000815260040161122790612e34565b60405180910390fd5b61123981610d50565b15611279576040517f08c379a000000000000000000000000000000000000000000000000000000000815260040161127090612ea0565b60405180910390fd5b611285600083836117bb565b6001600360008473ffffffffffffffffffffffffffffffffffffffff1673ffffffffffffffffffffffffffffffffffffffff16815260200190815260200160002060008282546112d59190612d92565b92505081905550816002600083815260200190815260200160002060006101000a81548173ffffffffffffffffffffffffffffffffffffffff021916908373ffffffffffffffffffffffffffffffffffffffff160217905550808273ffffffffffffffffffffffffffffffffffffffff16600073ffffffffffffffffffffffffffffffffffffffff167fddf252ad1be2c89b69c2b068fc378daa952ba7f163c4a11628f55a4df523b3ef60405160405180910390a4611396600083836117cb565b5050565b8173ffffffffffffffffffffffffffffffffffffffff168373ffffffffffffffffffffffffffffffffffffffff1603611408576040517f08c379a00000000000000000000000000000000000000000000000000000000081526004016113ff90612f0c565b60405180910390fd5b80600560008573ffffffffffffffffffffffffffffffffffffffff1673ffffffffffffffffffffffffffffffffffffffff16815260200190815260200160002060008473ffffffffffffffffffffffffffffffffffffffff1673ffffffffffffffffffffffffffffffffffffffff16815260200190815260200160002060006101000a81548160ff0219169083151502179055508173ffffffffffffffffffffffffffffffffffffffff168373ffffffffffffffffffffffffffffffffffffffff167f17307eab39ab6107e8899845ad3d59bd9653f200f220920489ca2b5937696c31836040516114f99190611f58565b60405180910390a3505050565b611511848484610f5b565b61151d848484846117d0565b61155c576040517f08c379a000000000000000000000000000000000000000000000000000000000815260040161155390612f9e565b60405180910390fd5b50505050565b606060405180602001604052806000815250905090565b6060600082036115c0576040518060400160405280600181526020017f300000000000000000000000000000000000000000000000000000000000000081525090506116d4565b600082905060005b600082146115f25780806115db90612fbe565b915050600a826115eb9190613035565b91506115c8565b60008167ffffffffffffffff81111561160e5761160d61220d565b5b6040519080825280601f01601f1916602001820160405280156116405781602001600182028036833780820191505090505b5090505b600085146116cd576001826116599190612af2565b9150600a856116689190613066565b60306116749190612d92565b60f81b81838151811061168a5761168961291d565b5b60200101907effffffffffffffffffffffffffffffffffffffffffffffffffffffffffffff1916908160001a905350600a856116c69190613035565b9450611644565b8093505050505b919050565b60007f80ac58cd000000000000000000000000000000000000000000000000000000007bffffffffffffffffffffffffffffffffffffffffffffffffffffffff1916827bffffffffffffffffffffffffffffffffffffffffffffffffffffffff191614806117a457507f5b5e139f000000000000000000000000000000000000000000000000000000007bffffffffffffffffffffffffffffffffffffffffffffffffffffffff1916827bffffffffffffffffffffffffffffffffffffffffffffffffffffffff1916145b806117b457506117b382611957565b5b9050919050565b6117c68383836119c1565b505050565b505050565b60006117f18473ffffffffffffffffffffffffffffffffffffffff16611ad3565b1561194a578373ffffffffffffffffffffffffffffffffffffffff1663150b7a0261181a610dbc565b8786866040518563ffffffff1660e01b815260040161183c94939291906130ec565b6020604051808303816000875af192505050801561187857506040513d601f19601f82011682018060405250810190611875919061314d565b60015b6118fa573d80600081146118a8576040519150601f19603f3d011682016040523d82523d6000602084013e6118ad565b606091505b5060008151036118f2576040517f08c379a00000000000000000000000000000000000000000000000000000000081526004016118e990612f9e565b60405180910390fd5b805181602001fd5b63150b7a0260e01b7bffffffffffffffffffffffffffffffffffffffffffffffffffffffff1916817bffffffffffffffffffffffffffffffffffffffffffffffffffffffff19161491505061194f565b600190505b949350505050565b60007f01ffc9a7000000000000000000000000000000000000000000000000000000007bffffffffffffffffffffffffffffffffffffffffffffffffffffffff1916827bffffffffffffffffffffffffffffffffffffffffffffffffffffffff1916149050919050565b6119cc838383611af6565b600073ffffffffffffffffffffffffffffffffffffffff168373ffffffffffffffffffffffffffffffffffffffff1603611a0e57611a0981611afb565b611a4d565b8173ffffffffffffffffffffffffffffffffffffffff168373ffffffffffffffffffffffffffffffffffffffff1614611a4c57611a4b8382611b44565b5b5b600073ffffffffffffffffffffffffffffffffffffffff168273ffffffffffffffffffffffffffffffffffffffff1603611a8f57611a8a81611cb1565b611ace565b8273ffffffffffffffffffffffffffffffffffffffff168273ffffffffffffffffffffffffffffffffffffffff1614611acd57611acc8282611d82565b5b5b505050565b6000808273ffffffffffffffffffffffffffffffffffffffff163b119050919050565b505050565b6008805490506009600083815260200190815260200160002081905550600881908060018154018082558091505060019003906000526020600020016000909190919091505550565b60006001611b5184610861565b611b5b9190612af2565b9050600060076000848152602001908152602001600020549050818114611c40576000600660008673ffffffffffffffffffffffffffffffffffffffff1673ffffffffffffffffffffffffffffffffffffffff168152602001908152602001600020600084815260200190815260200160002054905080600660008773ffffffffffffffffffffffffffffffffffffffff1673ffffffffffffffffffffffffffffffffffffffff168152602001908152602001600020600084815260200190815260200160002081905550816007600083815260200190815260200160002081905550505b6007600084815260200190815260200160002060009055600660008573ffffffffffffffffffffffffffffffffffffffff1673ffffffffffffffffffffffffffffffffffffffff16815260200190815260200160002060008381526020019081526020016000206000905550505050565b60006001600880549050611cc59190612af2565b9050600060096000848152602001908152602001600020549050600060088381548110611cf557611cf461291d565b5b906000526020600020015490508060088381548110611d1757611d1661291d565b5b906000526020600020018190555081600960008381526020019081526020016000208190555060096000858152602001908152602001600020600090556008805480611d6657611d6561317a565b5b6001900381819060005260206000200160009055905550505050565b6000611d8d83610861565b905081600660008573ffffffffffffffffffffffffffffffffffffffff1673ffffffffffffffffffffffffffffffffffffffff168152602001908152602001600020600083815260200190815260200160002081905550806007600084815260200190815260200160002081905550505050565b828054611e0d90612580565b90600052602060002090601f016020900481019282611e2f5760008555611e76565b82601f10611e4857805160ff1916838001178555611e76565b82800160010185558215611e76579182015b82811115611e75578251825591602001919060010190611e5a565b5b509050611e839190611e87565b5090565b5b80821115611ea0576000816000905550600101611e88565b5090565b6000604051905090565b600080fd5b600080fd5b60007fffffffff0000000000000000000000000000000000000000000000000000000082169050919050565b611eed81611eb8565b8114611ef857600080fd5b50565b600081359050611f0a81611ee4565b92915050565b600060208284031215611f2657611f25611eae565b5b6000611f3484828501611efb565b91505092915050565b60008115159050919050565b611f5281611f3d565b82525050565b6000602082019050611f6d6000830184611f49565b92915050565b600081519050919050565b600082825260208201905092915050565b60005b83811015611fad578082015181840152602081019050611f92565b83811115611fbc576000848401525b50505050565b6000601f19601f8301169050919050565b6000611fde82611f73565b611fe88185611f7e565b9350611ff8818560208601611f8f565b61200181611fc2565b840191505092915050565b600060208201905081810360008301526120268184611fd3565b905092915050565b6000819050919050565b6120418161202e565b811461204c57600080fd5b50565b60008135905061205e81612038565b92915050565b60006020828403121561207a57612079611eae565b5b60006120888482850161204f565b91505092915050565b600073ffffffffffffffffffffffffffffffffffffffff82169050919050565b60006120bc82612091565b9050919050565b6120cc816120b1565b82525050565b60006020820190506120e760008301846120c3565b92915050565b6120f6816120b1565b811461210157600080fd5b50565b600081359050612113816120ed565b92915050565b600080604083850312156121305761212f611eae565b5b600061213e85828601612104565b925050602061214f8582860161204f565b9150509250929050565b6121628161202e565b82525050565b600060208201905061217d6000830184612159565b92915050565b60008060006060848603121561219c5761219b611eae565b5b60006121aa86828701612104565b93505060206121bb86828701612104565b92505060406121cc8682870161204f565b9150509250925092565b6000602082840312156121ec576121eb611eae565b5b60006121fa84828501612104565b91505092915050565b600080fd5b600080fd5b7f4e487b7100000000000000000000000000000000000000000000000000000000600052604160045260246000fd5b61224582611fc2565b810181811067ffffffffffffffff821117156122645761226361220d565b5b80604052505050565b6000612277611ea4565b9050612283828261223c565b919050565b600067ffffffffffffffff8211156122a3576122a261220d565b5b6122ac82611fc2565b9050602081019050919050565b82818337600083830152505050565b60006122db6122d684612288565b61226d565b9050828152602081018484840111156122f7576122f6612208565b5b6123028482856122b9565b509392505050565b600082601f83011261231f5761231e612203565b5b813561232f8482602086016122c8565b91505092915050565b60006020828403121561234e5761234d611eae565b5b600082013567ffffffffffffffff81111561236c5761236b611eb3565b5b6123788482850161230a565b91505092915050565b61238a81611f3d565b811461239557600080fd5b50565b6000813590506123a781612381565b92915050565b600080604083850312156123c4576123c3611eae565b5b60006123d285828601612104565b92505060206123e385828601612398565b9150509250929050565b600067ffffffffffffffff8211156124085761240761220d565b5b61241182611fc2565b9050602081019050919050565b600061243161242c846123ed565b61226d565b90508281526020810184848401111561244d5761244c612208565b5b6124588482856122b9565b509392505050565b600082601f83011261247557612474612203565b5b813561248584826020860161241e565b91505092915050565b600080600080608085870312156124a8576124a7611eae565b5b60006124b687828801612104565b94505060206124c787828801612104565b93505060406124d88782880161204f565b925050606085013567ffffffffffffffff8111156124f9576124f8611eb3565b5b61250587828801612460565b91505092959194509250565b6000806040838503121561252857612527611eae565b5b600061253685828601612104565b925050602061254785828601612104565b9150509250929050565b7f4e487b7100000000000000000000000000000000000000000000000000000000600052602260045260246000fd5b6000600282049050600182168061259857607f821691505b6020821081036125ab576125aa612551565b5b50919050565b7f4552433732313a20617070726f76656420717565727920666f72206e6f6e657860008201527f697374656e7420746f6b656e0000000000000000000000000000000000000000602082015250565b600061260d602c83611f7e565b9150612618826125b1565b604082019050919050565b6000602082019050818103600083015261263c81612600565b9050919050565b7f4552433732313a20617070726f76616c20746f2063757272656e74206f776e6560008201527f7200000000000000000000000000000000000000000000000000000000000000602082015250565b600061269f602183611f7e565b91506126aa82612643565b604082019050919050565b600060208201905081810360008301526126ce81612692565b9050919050565b7f4552433732313a20617070726f76652063616c6c6572206973206e6f74206f7760008201527f6e6572206e6f7220617070726f76656420666f7220616c6c0000000000000000602082015250565b6000612731603883611f7e565b915061273c826126d5565b604082019050919050565b6000602082019050818103600083015261276081612724565b9050919050565b7f4552433732313a207472616e736665722063616c6c6572206973206e6f74206f60008201527f776e6572206e6f7220617070726f766564000000000000000000000000000000602082015250565b60006127c3603183611f7e565b91506127ce82612767565b604082019050919050565b600060208201905081810360008301526127f2816127b6565b9050919050565b7f455243373231456e756d657261626c653a206f776e657220696e646578206f7560008201527f74206f6620626f756e6473000000000000000000000000000000000000000000602082015250565b6000612855602b83611f7e565b9150612860826127f9565b604082019050919050565b6000602082019050818103600083015261288481612848565b9050919050565b7f455243373231456e756d657261626c653a20676c6f62616c20696e646578206f60008201527f7574206f6620626f756e64730000000000000000000000000000000000000000602082015250565b60006128e7602c83611f7e565b91506128f28261288b565b604082019050919050565b60006020820190508181036000830152612916816128da565b9050919050565b7f4e487b7100000000000000000000000000000000000000000000000000000000600052603260045260246000fd5b7f4552433732313a206f776e657220717565727920666f72206e6f6e657869737460008201527f656e7420746f6b656e0000000000000000000000000000000000000000000000602082015250565b60006129a8602983611f7e565b91506129b38261294c565b604082019050919050565b600060208201905081810360008301526129d78161299b565b9050919050565b7f4552433732313a2062616c616e636520717565727920666f7220746865207a6560008201527f726f206164647265737300000000000000000000000000000000000000000000602082015250565b6000612a3a602a83611f7e565b9150612a45826129de565b604082019050919050565b60006020820190508181036000830152612a6981612a2d565b9050919050565b600081905092915050565b6000612a8682611f73565b612a908185612a70565b9350612aa0818560208601611f8f565b80840191505092915050565b6000612ab88284612a7b565b915081905092915050565b7f4e487b7100000000000000000000000000000000000000000000000000000000600052601160045260246000fd5b6000612afd8261202e565b9150612b088361202e565b925082821015612b1b57612b1a612ac3565b5b828203905092915050565b7f4552433732314d657461646174613a2055524920717565727920666f72206e6f60008201527f6e6578697374656e7420746f6b656e0000000000000000000000000000000000602082015250565b6000612b82602f83611f7e565b9150612b8d82612b26565b604082019050919050565b60006020820190508181036000830152612bb181612b75565b9050919050565b6000612bc48285612a7b565b9150612bd08284612a7b565b91508190509392505050565b7f4552433732313a206f70657261746f7220717565727920666f72206e6f6e657860008201527f697374656e7420746f6b656e0000000000000000000000000000000000000000602082015250565b6000612c38602c83611f7e565b9150612c4382612bdc565b604082019050919050565b60006020820190508181036000830152612c6781612c2b565b9050919050565b7f4552433732313a207472616e736665722066726f6d20696e636f72726563742060008201527f6f776e6572000000000000000000000000000000000000000000000000000000602082015250565b6000612cca602583611f7e565b9150612cd582612c6e565b604082019050919050565b60006020820190508181036000830152612cf981612cbd565b9050919050565b7f4552433732313a207472616e7366657220746f20746865207a65726f2061646460008201527f7265737300000000000000000000000000000000000000000000000000000000602082015250565b6000612d5c602483611f7e565b9150612d6782612d00565b604082019050919050565b60006020820190508181036000830152612d8b81612d4f565b9050919050565b6000612d9d8261202e565b9150612da88361202e565b9250827fffffffffffffffffffffffffffffffffffffffffffffffffffffffffffffffff03821115612ddd57612ddc612ac3565b5b828201905092915050565b7f4552433732313a206d696e7420746f20746865207a65726f2061646472657373600082015250565b6000612e1e602083611f7e565b9150612e2982612de8565b602082019050919050565b60006020820190508181036000830152612e4d81612e11565b9050919050565b7f4552433732313a20746f6b656e20616c7265616479206d696e74656400000000600082015250565b6000612e8a601c83611f7e565b9150612e9582612e54565b602082019050919050565b60006020820190508181036000830152612eb981612e7d565b9050919050565b7f4552433732313a20617070726f766520746f2063616c6c657200000000000000600082015250565b6000612ef6601983611f7e565b9150612f0182612ec0565b602082019050919050565b60006020820190508181036000830152612f2581612ee9565b9050919050565b7f4552433732313a207472616e7366657220746f206e6f6e20455243373231526560008201527f63656976657220696d706c656d656e7465720000000000000000000000000000602082015250565b6000612f88603283611f7e565b9150612f9382612f2c565b604082019050919050565b60006020820190508181036000830152612fb781612f7b565b9050919050565b6000612fc98261202e565b91507fffffffffffffffffffffffffffffffffffffffffffffffffffffffffffffffff8203612ffb57612ffa612ac3565b5b600182019050919050565b7f4e487b7100000000000000000000000000000000000000000000000000000000600052601260045260246000fd5b60006130408261202e565b915061304b8361202e565b92508261305b5761305a613006565b5b828204905092915050565b60006130718261202e565b915061307c8361202e565b92508261308c5761308b613006565b5b828206905092915050565b600081519050919050565b600082825260208201905092915050565b60006130be82613097565b6130c881856130a2565b93506130d8818560208601611f8f565b6130e181611fc2565b840191505092915050565b600060808201905061310160008301876120c3565b61310e60208301866120c3565b61311b6040830185612159565b818103606083015261312d81846130b3565b905095945050505050565b60008151905061314781611ee4565b92915050565b60006020828403121561316357613162611eae565b5b600061317184828501613138565b91505092915050565b7f4e487b7100000000000000000000000000000000000000000000000000000000600052603160045260246000fdfea2646970667358221220fcbe9503d74ef2cff2803bb415c1b60cb6f19973b6a643e224434cf1d081caa464736f6c634300080d0033",
  "immutableReferences": {},
  "source": "// SPDX-License-Identifier: MIT\r\npragma solidity ^0.8.0;\r\nimport \"../client/node_modules/@openzeppelin/contracts/token/ERC721/ERC721.sol\";\r\nimport \"../client/node_modules/@openzeppelin/contracts/token/ERC721/extensions/ERC721Enumerable.sol\";\r\ncontract NFT is ERC721, ERC721Enumerable  {\r\n\r\nconstructor() ERC721(\"VANITH NFT\", \"VNFT\"){\r\n\r\n}\r\n    \r\n    string[] public items;\r\n    mapping(string => bool) private itemExits;\r\n\r\n    function mint_NFT(string memory _item) public {\r\n     require(!itemExits[_item]);\r\n     items.push(_item);\r\n     itemExits[_item]=true;\r\n     uint _id=items.length-1;\r\n     _mint(msg.sender,_id );\r\n\r\n    }\r\n   function _beforeTokenTransfer(address from, address to, uint256 tokenId)\r\n        internal\r\n        override(ERC721, ERC721Enumerable)\r\n    {\r\n        super._beforeTokenTransfer(from, to, tokenId);\r\n    }\r\n\r\n    function supportsInterface(bytes4 interfaceId) public view\r\n        override(ERC721, ERC721Enumerable)\r\n        returns (bool)\r\n    {\r\n        return super.supportsInterface(interfaceId);\r\n    }\r\n\r\n}\r\n\r\n",
  "sourcePath": "C:\\Users\\vanith\\Desktop\\Blockchain Project\\nft\\contracts\\NFT.sol",
  "compiler": {
    "name": "solc",
    "version": "0.8.13+commit.abaa5c0e.Emscripten.clang"
  },
  "schemaVersion": "3.4.7",
  "updatedAt": "2022-04-17T12:34:01.126Z",
  "networkType": "ethereum",
  "devdoc": {
    "kind": "dev",
    "methods": {
      "approve(address,uint256)": {
        "details": "See {IERC721-approve}."
      },
      "balanceOf(address)": {
        "details": "See {IERC721-balanceOf}."
      },
      "getApproved(uint256)": {
        "details": "See {IERC721-getApproved}."
      },
      "isApprovedForAll(address,address)": {
        "details": "See {IERC721-isApprovedForAll}."
      },
      "name()": {
        "details": "See {IERC721Metadata-name}."
      },
      "ownerOf(uint256)": {
        "details": "See {IERC721-ownerOf}."
      },
      "safeTransferFrom(address,address,uint256)": {
        "details": "See {IERC721-safeTransferFrom}."
      },
      "safeTransferFrom(address,address,uint256,bytes)": {
        "details": "See {IERC721-safeTransferFrom}."
      },
      "setApprovalForAll(address,bool)": {
        "details": "See {IERC721-setApprovalForAll}."
      },
      "symbol()": {
        "details": "See {IERC721Metadata-symbol}."
      },
      "tokenByIndex(uint256)": {
        "details": "See {IERC721Enumerable-tokenByIndex}."
      },
      "tokenOfOwnerByIndex(address,uint256)": {
        "details": "See {IERC721Enumerable-tokenOfOwnerByIndex}."
      },
      "tokenURI(uint256)": {
        "details": "See {IERC721Metadata-tokenURI}."
      },
      "totalSupply()": {
        "details": "See {IERC721Enumerable-totalSupply}."
      },
      "transferFrom(address,address,uint256)": {
        "details": "See {IERC721-transferFrom}."
      }
    },
    "version": 1
  },
  "userdoc": {
    "kind": "user",
    "methods": {},
    "version": 1
  }
}